{
  "_format": "hh-sol-artifact-1",
  "contractName": "HelloWorld",
  "sourceName": "contracts/Input.sol",
  "abi": [
    {
      "inputs": [],
      "stateMutability": "nonpayable",
      "type": "constructor"
    },
    {
      "anonymous": false,
      "inputs": [
        {
          "indexed": false,
          "internalType": "string",
          "name": "newGreeting",
          "type": "string"
        }
      ],
      "name": "GreetingChanged",
      "type": "event"
    },
    {
      "inputs": [],
      "name": "getGreeting",
      "outputs": [
        {
          "internalType": "string",
          "name": "",
          "type": "string"
        }
      ],
      "stateMutability": "view",
      "type": "function"
    },
    {
      "inputs": [
        {
          "internalType": "string",
          "name": "_newGreeting",
          "type": "string"
        }
      ],
      "name": "setGreeting",
      "outputs": [],
      "stateMutability": "nonpayable",
      "type": "function"
    }
  ],
  "bytecode": "0x60806040523480156200001157600080fd5b506040518060400160405280600d81526020017f48656c6c6f2c20576f726c64210000000000000000000000000000000000000081525060009081620000589190620002d9565b50620003c0565b600081519050919050565b7f4e487b7100000000000000000000000000000000000000000000000000000000600052604160045260246000fd5b7f4e487b7100000000000000000000000000000000000000000000000000000000600052602260045260246000fd5b60006002820490506001821680620000e157607f821691505b602082108103620000f757620000f662000099565b5b50919050565b60008190508160005260206000209050919050565b60006020601f8301049050919050565b600082821b905092915050565b600060088302620001617fffffffffffffffffffffffffffffffffffffffffffffffffffffffffffffffff8262000122565b6200016d868362000122565b95508019841693508086168417925050509392505050565b6000819050919050565b6000819050919050565b6000620001ba620001b4620001ae8462000185565b6200018f565b62000185565b9050919050565b6000819050919050565b620001d68362000199565b620001ee620001e582620001c1565b8484546200012f565b825550505050565b600090565b62000205620001f6565b62000212818484620001cb565b505050565b5b818110156200023a576200022e600082620001fb565b60018101905062000218565b5050565b601f82111562000289576200025381620000fd565b6200025e8462000112565b810160208510156200026e578190505b620002866200027d8562000112565b83018262000217565b50505b505050565b600082821c905092915050565b6000620002ae600019846008026200028e565b1980831691505092915050565b6000620002c983836200029b565b9150826002028217905092915050565b620002e4826200005f565b67ffffffffffffffff8111156200030057620002ff6200006a565b5b6200030c8254620000c8565b620003198282856200023e565b600060209050601f8311600181146200035157600084156200033c578287015190505b620003488582620002bb565b865550620003b8565b601f1984166200036186620000fd565b60005b828110156200038b5784890151825560018201915060208501945060208101905062000364565b86831015620003ab5784890151620003a7601f8916826200029b565b8355505b6001600288020188555050505b505050505050565b6106b380620003d06000396000f3fe608060405234801561001057600080fd5b50600436106100365760003560e01c8063a41368621461003b578063fe50cc7214610057575b600080fd5b610055600480360381019061005091906102ab565b610075565b005b61005f6100bf565b60405161006c9190610373565b60405180910390f35b806000908161008491906105ab565b507f58c1144814f1df01a80f7347f945437a37cd818e027f87b0ade6db623ec41b57816040516100b49190610373565b60405180910390a150565b6060600080546100ce906103c4565b80601f01602080910402602001604051908101604052809291908181526020018280546100fa906103c4565b80156101475780601f1061011c57610100808354040283529160200191610147565b820191906000526020600020905b81548152906001019060200180831161012a57829003601f168201915b5050505050905090565b6000604051905090565b600080fd5b600080fd5b600080fd5b600080fd5b6000601f19601f8301169050919050565b7f4e487b7100000000000000000000000000000000000000000000000000000000600052604160045260246000fd5b6101b88261016f565b810181811067ffffffffffffffff821117156101d7576101d6610180565b5b80604052505050565b60006101ea610151565b90506101f682826101af565b919050565b600067ffffffffffffffff82111561021657610215610180565b5b61021f8261016f565b9050602081019050919050565b82818337600083830152505050565b600061024e610249846101fb565b6101e0565b90508281526020810184848401111561026a5761026961016a565b5b61027584828561022c565b509392505050565b600082601f83011261029257610291610165565b5b81356102a284826020860161023b565b91505092915050565b6000602082840312156102c1576102c061015b565b5b600082013567ffffffffffffffff8111156102df576102de610160565b5b6102eb8482850161027d565b91505092915050565b600081519050919050565b600082825260208201905092915050565b60005b8381101561032e578082015181840152602081019050610313565b60008484015250505050565b6000610345826102f4565b61034f81856102ff565b935061035f818560208601610310565b6103688161016f565b840191505092915050565b6000602082019050818103600083015261038d818461033a565b905092915050565b7f4e487b7100000000000000000000000000000000000000000000000000000000600052602260045260246000fd5b600060028204905060018216806103dc57607f821691505b6020821081036103ef576103ee610395565b5b50919050565b60008190508160005260206000209050919050565b60006020601f8301049050919050565b600082821b905092915050565b6000600883026104577fffffffffffffffffffffffffffffffffffffffffffffffffffffffffffffffff8261041a565b610461868361041a565b95508019841693508086168417925050509392505050565b6000819050919050565b6000819050919050565b60006104a86104a361049e84610479565b610483565b610479565b9050919050565b6000819050919050565b6104c28361048d565b6104d66104ce826104af565b848454610427565b825550505050565b600090565b6104eb6104de565b6104f68184846104b9565b505050565b5b8181101561051a5761050f6000826104e3565b6001810190506104fc565b5050565b601f82111561055f57610530816103f5565b6105398461040a565b81016020851015610548578190505b61055c6105548561040a565b8301826104fb565b50505b505050565b600082821c905092915050565b600061058260001984600802610564565b1980831691505092915050565b600061059b8383610571565b9150826002028217905092915050565b6105b4826102f4565b67ffffffffffffffff8111156105cd576105cc610180565b5b6105d782546103c4565b6105e282828561051e565b600060209050601f8311600181146106155760008415610603578287015190505b61060d858261058f565b865550610675565b601f198416610623866103f5565b60005b8281101561064b57848901518255600182019150602085019450602081019050610626565b868310156106685784890151610664601f891682610571565b8355505b6001600288020188555050505b50505050505056fea2646970667358221220077eeb2a5940f94cb9e2254864841a615058cd74745298d338bf82b7025b4aea64736f6c63430008130033",
  "linkReferences": {},
  "deployedLinkReferences": {}
}